:100000000C94FE000C941F010C941F010C941F0112
:100010000C941F010C941F010C941F010C941F01E0
:100020000C941F010C941F010C941F010C941F01D0
:100030000C941F010C941F010C941F010C941F01C0
:100040000C941F010C941F010C941F010C941F01B0
:100050000C941F010C941F010C941F010C941F01A0
:100060000C941F010C941F010C941F010C941F0190
:100070000C941F010C941F010C941F010C941F0180
:100080000C941F010C941F010C941F010C941F0170
:100090000C941F010C941F010C941F010C941F0160
:1000A0000C941F010C941F010C941F010C941F0150
:1000B0000C941F010C941F010C941F010C941F0140
:1000C0000C941F010C941F010C941F010C941F0130
:1000D0000C941F010C941F010C941F010C941F0120
:1000E0000C941F010C941F010C941F010C941F0110
:1000F0000C941F010C941F010C941F010C941F0100
:100100000C941F010C941F010C941F010C941F01EF
:100110000C941F010C941F010C941F010C941F01DF
:100120000C941F010C941F010C941F010C941F01CF
:100130000C941F010C941F010C941F010C941F01BF
:100140000C941F010C941F010C941F010C941F01AF
:100150000C941F010C941F010C941F010C941F019F
:100160000C941F010C941F010C941F010C941F018F
:100170000C941F010C941F010C941F010C941F017F
:100180000C941F010C941F010C941F010C941F016F
:100190000C941F010C941F010C941F010C941F015F
:1001A0000C941F010C941F010C941F010C941F014F
:1001B0000C941F010C941F010C941F010C941F013F
:1001C0000C941F010C941F010C941F010C941F012F
:1001D0000C941F010C941F010C941F010C941F011F
:1001E0000C941F010C941F010C941F010C941F010F
:1001F0000C941F010C941F010C941F0111241FBEAD
:10020000CFEFCDBFDFE3DEBF00E00CBF10E2A0E028
:10021000B0E2E6EFF2E000E00BBF02C007900D9203
:10022000A230B107D9F721E2A2E0B0E201C01D92ED
:10023000A033B207E1F70E9473010C9479010C948A
:100240000000DC01ED91FC9111976383ED91FC912D
:1002500082818823ECF783819FEF9093A60608950F
:10026000CF93DF93A0E8B6E080E111968C931197CD
:1002700090E211969C93119790E811969C93119798
:1002800098E354969C93549715968C931597E9E2AE
:10029000F1E2C0ECDAE0C083D183A283B38314829D
:1002A00088ED8883A081B18111961C9215821682F7
:1002B0000280F381E02D80EA8183DF91CF91089560
:1002C000CF93E0910020F0910120C0E1C683682F18
:1002D00089E291E20E942101E0910020F091012049
:1002E000C583CF9108950E9430018CE40E94600183
:0602F000FCCFF894FFCFE3
:0202F600800680
:00000001FF
